:10000000020609008F828E83E0540100000070F820
:100010002278FFE4F6D8FD020667BB010689828AD2
:1000200083E0225002E722BBFE02E32289828A8318
:10003000E49322BB010689828A83F0225002F722D0
:10004000BBFE01F322E88FF0A4CC8BF0A42CFCE9DA
:100050008EF0A42CFC8AF0EDA42CFCEA8EF0A4CD4A
:10006000A8F08BF0A42DCC3825F0FDE98FF0A42C5E
:10007000CD35F0FCEB8EF0A4FEA9F0EB8FF0A4CF11
:10008000C5F02ECD39FEE43CFCEAA42DCE35F0FDC2
:10009000E43CFC2275F008758200EF2FFFEE33FE82
:1000A000CD33CDCC33CCC58233C5829BED9AEC9950
:1000B000E58298400CF582EE9BFEED9AFDEC99FCF2
:1000C0000FD5F0D6E4CEFBE4CDFAE4CCF9A8822239
:1000D000B800C1B90059BA002DEC8BF084CFCECD59
:1000E000FCE5F0CBF97818EF2FFFEE33FEED33FD92
:1000F000EC33FCEB33FB10D703994004EB99FB0F77
:10010000D8E5E4F9FA227818EF2FFFEE33FEED334D
:10011000FDEC33FCC933C910D7059BE99A4007ECC5
:100120009BFCE99AF90FD8E0E4C9FAE4CCFB22750C
:10013000F010EF2FFFEE33FEED33FDCC33CCC833A0
:10014000C810D7079BEC9AE899400AED9BFDEC9A02
:10015000FCE899F80FD5F0DAE4CDFBE4CCFAE4C87A
:10016000F922EB9FF5F0EA9E42F0E99D42F0E89C0F
:1001700045F022E8600FECC313FCED13FDEE13FE17
:10018000EF13FFD8F122E8600FEFC333FFEE33FE29
:10019000ED33FDEC33FCD8F122ECF0A3EDF0A3EE4F
:1001A000F0A3EFF022D083D082F8E49370127401B0
:1001B00093700DA3A393F8740193F5828883E4737D
:1001C0007402936860EFA3A3A380DFE50C2582F59A
:1001D00082E50B3583F583B50B0485820C2210AFC5
:1001E0000685820CF50B2285820CF50BD2AF22EC32
:1001F0008EF0A4CCC5F0CCCDF8EFA4CEC5F02DFD8B
:10020000E43CFCE8A42EC8C5F03DFDE43CFCEFA4B2
:10021000FFE5F028FEE43DFDE43CFC227F947E01F6
:100220007D007C009000BD120199905120E0FFEF0D
:100230005480FFEFF0905122E0FFEF54F0FF900068
:10024000BCEFF09000BCE0FFEF440FFF905122EFB5
:10025000F0905123E0FFEF54F0FF9000BCEFF090DE
:1002600000BCE0FF905123EFF0905124E0FFEF54E9
:10027000F0FF9000BCEFF09000BCE0FF905124EF45
:10028000F0905120E0FFEF54DFFFEFF0905120E0BD
:10029000FFEF4440FFEFF07F007E00120B149051FF
:1002A00020E0FFEF4410FFEFF07F017E00120B14FF
:1002B000905121E0FF9000BCEFF0905120E0FFEF63
:1002C00054EFFFEFF07F007E00120B149000BCE0B3
:1002D000FFEF5408FF9000BCEFF0905120E0FFEFDB
:1002E0004410FFEFF07F017E00120B14905120E0CC
:1002F000FFEF54EFFFEFF09000BCE0FFEF70077FDF
:100300000A7E00120B149000BDE0FCA3E0FDA3E008
:10031000FEA3E0FF7BFF7AFF79FF78FFEF2BFFEE74
:100320003AFEED39FDEC38FC9000BD1201999000C9
:10033000BCE0FFEF601A9000BDE0FCA3E0FDA3E08D
:10034000FEA3E0FFD3EF9400EE9400400302029777
:10035000905120E0FFEF54BFFFEFF0905120E0FFFD
:10036000EF5480FFEFF0905122E0FFEF54F0FFEFE9
:10037000F0905123E0FFEF54F0FF9000BCEFF090BD
:1003800000BCE0FFEF440FFF905123EFF0905124A9
:10039000E0FFEF54F0FF9000BCEFF09000BCE0FFF6
:1003A000EF440FFF905124EFF0227B007A4679E86A
:1003B000120C3EEF4405FD7B007A4679E8120C4AA8
:1003C000750A00E50AC3940A5042AF0AEF75F005BA
:1003D000A424A3F582E4340CF583AF82AE838E08A7
:1003E0008F09AE08AF098F828E83E493FB7401936B
:1003F000FA740293F9AE08AF098F828E8374039367
:10040000FC740493FD1209E1050A80B77E0C7F6637
:10041000120AE57B017A507903120C3EEF4402FD8B
:100420007B017A507903120C4A7B017A50791312BE
:100430000C3EEF4402FD7B017A507913120C4A9076
:1004400043A0E0FFEF4440FF9043A0EFF09043C291
:10045000E0FFEF4410FF9043C2EFF07C0C7D567B31
:10046000007A5179027F087E00120B417C0C7D5E80
:100470007B007A5179227F087E00120B4190432243
:10048000E0FFEF4408FF904322EFF09046ECE0FFDE
:10049000EFC394055006904689743AF09048007472
:1004A000C0F01204E49048007480F0120A4B7B0004
:1004B0007A4379A0C003C002C0017B007A4379B0BF
:1004C00090009AEBF0A3EAF0A3E9F0D001D002D0BB
:1004D000037F0E7E00120A819043B0E0FFEF54FDCF
:1004E000FFEFF0227B007A4079807D037C00120CC4
:1004F00017904082741BF09043007402F09040000B
:100500007408F09042007403F07B0C7A01790812B1
:100510000C3E9046A1EFF07B007A4279227D087C68
:1005200000120C177B007A4279207D517C12120C4C
:10053000179000CAE4F07F197E007D007C009000D7
:10054000C61201999000C6E0FCA3E0FDA3E0FEA363
:10055000E0FFD3EF9400EE9400405F9000CAE0FF0C
:10056000EF64036055904225E0FFEF5401FF7E00E9
:100570009000CAE0FEEE25E0FEEE4FFFEF5403FFD1
:100580009000CAEFF07FE07E017D007C00120A003F
:100590009000C6E0FCA3E0FDA3E0FEA3E0FF7BFF2C
:1005A0007AFF79FF78FFEF2BFFEE3AFEED39FDEC95
:1005B00038FC9000C6120199808A9000C6E0FCA326
:1005C000E0FDA3E0FEA3E0FFEF4E70057F03120BFA
:1005D000F57B007A4079047D007C01120C17904075
:1005E000047407F0904006E4F09040087448F090DE
:1005F0004004E4F09040017402F09043A2E0FFEF69
:100600004401FF9043A2EFF02275930078007583B8
:10061000467582E8E04401F0009046ECE0F990462F
:10062000FAE0FAB903225420B40012B8001AEA9092
:100630001FFFF07401901FFEF09046F6F0901FFE31
:10064000E06005901FFFE0FA90480074C0F07581EB
:100650000C90000078007920E4F0A3D8FCD9FAEAE5
:1006600090006CF0020011750B1F750CFD1203AAAF
:100670000206AE020BE3E493A3F8E493A34003F66F
:100680008001F208DFF48029E493A3F85407240CD6
:10069000C8C333C4540F4420C8834004F4568001B7
:1006A00046F6DFE4800B0102040810204080900A27
:1006B000B5E47E019360BCA3FF543F30E509541FAD
:1006C000FEE493A360010ECF54C025E060A840B8BB
:1006D000E493A3FAE493A3F8E493A3C8C582C8CA39
:1006E000C583CAF0A3C8C582C8CAC583CADFE9DE0C
:1006F000E780BE90FFFC1201CB120199850B838528
:100700000C82E0FCA3E0FDA3E0FEA3E0FFD3EF94A6
:1007100000EE9480403F90006DE0FCA3E0FDA3E07C
:10072000FEA3E0FF120A00850B83850C82C083C004
:1007300082E0FCA3E0FDA3E0FEA3E0FFEF2400FFC6
:10074000EE3480FEED34FFFDEC34FFFCD082D0832C
:1007500012019980A7900063E0FCA3E0FDA3E0FEF6
:10076000A3E0FF850B83850C82E0F8A3E0F9A3E00A
:10077000FAA3E0FB120045120A009000041201CB1C
:10078000227F287E007D007C001206F37F03120981
:100790002C7F057E007D007C001206F37F0312098A
:1007A0002C7F0F7E007D007C001206F37F03120970
:1007B0002C7F017E007D007C001206F37F0212096F
:1007C0002C7F057E007D007C001206F37F06120957
:1007D000AB7F0E1209AB7F2C1209AB7F081209AB5D
:1007E0007F011209AB7F0C1209AB7F031209AB7FAB
:1007F000057E007D007C001206F322904F00E0FF92
:10080000EF4402FFEFF0904F02E0FFEF548FFF90B4
:10081000013BEFF090013BE0FFEF4410FF904F02EF
:10082000EFF0904F0BE0FFEF54CFFFEFF0904F0B46
:10083000E0FFEF4430FFEFF0904F0BE0FFEF54F09C
:10084000FFEFF0904F0BE0FFEF440FFFEFF07FFF63
:10085000120B897F7F120BA17F00120C079043A31C
:10086000E0FFEF4401FFEFF0904F01E0FFEF4401A4
:10087000FFEFF0229000B7EBF0A3EAF0A3E9F090CD
:1008800000BA7401F09000B7E0FBA3E0FAA3E0F92E
:1008900012001AFF9000BBEFF09000BBE0FFEF608A
:1008A0002F9000BBE0FF1209759000B7E0FBA3E0BA
:1008B000FAA3E0F99000BAE0FFE92FF9E43AFA125E
:1008C000001AFF9000BBEFF09000BAE004F080C97E
:1008D00022900138EFF0905120E0FFEF4420FFEF2D
:1008E000F0905120E0FFEF54BFFFEFF07F007E005B
:1008F000120B14905120E0FFEF54F0FFEFF09051F5
:1009000020C083C082E0FF900138E0FEEE4410FE7C
:10091000EF4EFFD082D083EFF07F017E00120B14E8
:10092000905120E0FFEF54EFFFEFF022900139EFFC
:10093000F0905120E0FFEF549FFFEFF0905120E046
:10094000FFEF54F0FFEFF0905120C083C082E0FF32
:10095000900139E0FEEE4410FEEF4EFFD082D083CE
:10096000EFF07F017E00120B14905120E0FFEF5456
:10097000EFFFEFF02290010FEFF012021C90010F39
:10098000E0FFEFC4540FFF900110EFF0900110E072
:10099000FF1208D190010FE0FFEF540FFF900110FC
:1009A000EFF0900110E0FF1208D122900111EFF05A
:1009B00012021C900111E0FFEFC4540FFF900112CE
:1009C000EFF0900112E0FF12092C900111E0FFEF0F
:1009D000540FFF900112EFF0900112E0FF12092C6A
:1009E00022EC4D6011ED60010C8B938A838982E4C7
:0A09F000F0A3DDFCDCFA7593002291
:100A0000EC4D4E700D78FCEF24E950032840FD2298
:100A1000000078C5904800E0C403035403900A47DF
:100A20009325E0240FF404FBEF28FF78FFEE38FE57
:100A3000ED38FDEC38FC50D7EF2BFFEE38FEED38EB
:100A4000FDEC38FC40F222050203047B0C7A0179AC
:100A5000CF120C3E900143EFF0900143E0FFEF54C2
:100A600007FF90586EEFF0900143E0FFEFC4540F82
:100A7000FFEF540FFF90586FEFF09058767444F0EA
:100A800022758600EF4E6027EF60010E759300908F
:100A9000009AE0F595A3E0F585A3E0F5848B938AB1
:100AA000838982E0A30586F0A31586DFF6DEF4E4F1
:100AB000F593F595224101150041011600410141D0
:100AC00000440068016E360044006300005DC041D0
:100AD00000671844006D2EE000004300E4000000B1
:100AE00041015E0000ACEAADA08E838F82E493F9F1
:100AF000601CA3E493F5EAA3E493F5A0A3E4936058
:100B0000F1FAA3E493F8A3E493F2DAF6D9E48DA022
:030B10008CEA224A
:100B1400EEFA900067E0F88FF0A4FFAEF0E88AF0F8
:100B2400A42EFEE5F03400FDEF24C9FF78FFEE3873
:100B3400FEED38FDE438FC5003020A0022758600FD
:100B4400EF4E601BEF60010E8C838D828B958A853E
:100B54008984E493A30586F0A31586DFF5DEF3E428
:100B6400F595229043A3E0FFEF4401FFEFF090439B
:100B7400B3E0FFEF4401FFEFF0904F00E0FFEF44DC
:100B840001FFEFF02290013CEFF07B027A4F7904F1
:100B940090013CE0FFEFFD7C00120C192290013D16
:100BA400EFF07B027A4F790690013DE0FFEFFD7C88
:100BB40000120C1922900116E0FFEF700912078150
:100BC4009001167401F0120C3222900141E0FFEF03
:100BD40070091207FB9001417401F0120B67221295
:100BE4000BB9120BCE7BFF7A0C792612087480FEA7
:100BF40022900142EFF0900142E0FF900142EFF0B9
:100C040080FE2290013EEFF090013EE0FF904F0302
:100C1400EFF0228B938A838982EDF0A3ECF0759335
:100C2400002248656C6C6F20576F726C64007F0CF7
:100C34001209AB9001157401F0228B938A83898287
:100C4400E0759300FF228B938A838982EDF075937C
:100C540000220001010001000000007F7F0000006D
:100C6400000008004F010A4B010701EE08010901C9
:100C7400AF20010A04B820BE10D804DF01010B0123
:100C84001F200141025308D4200142036302A70834
:100C9400D6400143051B08A708AF01C610EE10009B
:100CA4004F00000C00511000100051300040005162
:100CB400C000100051F000100100001000011400E9
:100CC40008000140000A00014C000200015000002D
:010CD40020FF
:00000001FF
